{
  "contractName": "FeedBack",
  "abi": [
    {
      "constant": true,
      "inputs": [],
      "name": "totalItems",
      "outputs": [
        {
          "name": "",
          "type": "uint256"
        }
      ],
      "payable": false,
      "stateMutability": "view",
      "type": "function"
    },
    {
      "constant": true,
      "inputs": [],
      "name": "totalreviews",
      "outputs": [
        {
          "name": "",
          "type": "uint256"
        }
      ],
      "payable": false,
      "stateMutability": "view",
      "type": "function"
    },
    {
      "constant": true,
      "inputs": [],
      "name": "categories",
      "outputs": [
        {
          "name": "",
          "type": "uint256"
        }
      ],
      "payable": false,
      "stateMutability": "view",
      "type": "function"
    },
    {
      "inputs": [
        {
          "name": "_token",
          "type": "address"
        },
        {
          "name": "_categories",
          "type": "uint256"
        }
      ],
      "payable": false,
      "stateMutability": "nonpayable",
      "type": "constructor"
    },
    {
      "constant": false,
      "inputs": [
        {
          "name": "_contents",
          "type": "string"
        },
        {
          "name": "_contents2",
          "type": "string"
        },
        {
          "name": "_item",
          "type": "uint256"
        }
      ],
      "name": "createReview",
      "outputs": [],
      "payable": false,
      "stateMutability": "nonpayable",
      "type": "function"
    },
    {
      "constant": false,
      "inputs": [
        {
          "name": "_name",
          "type": "string"
        },
        {
          "name": "_category",
          "type": "uint256"
        }
      ],
      "name": "createItem",
      "outputs": [],
      "payable": false,
      "stateMutability": "nonpayable",
      "type": "function"
    },
    {
      "constant": false,
      "inputs": [
        {
          "name": "a",
          "type": "address"
        }
      ],
      "name": "registerUser",
      "outputs": [],
      "payable": false,
      "stateMutability": "nonpayable",
      "type": "function"
    },
    {
      "constant": false,
      "inputs": [],
      "name": "redeemPoints",
      "outputs": [],
      "payable": false,
      "stateMutability": "nonpayable",
      "type": "function"
    },
    {
      "constant": false,
      "inputs": [
        {
          "name": "_id",
          "type": "uint256"
        }
      ],
      "name": "upvote",
      "outputs": [],
      "payable": false,
      "stateMutability": "nonpayable",
      "type": "function"
    },
    {
      "constant": false,
      "inputs": [
        {
          "name": "_id",
          "type": "uint256"
        }
      ],
      "name": "downvote",
      "outputs": [],
      "payable": false,
      "stateMutability": "nonpayable",
      "type": "function"
    },
    {
      "constant": true,
      "inputs": [
        {
          "name": "ID",
          "type": "uint256"
        }
      ],
      "name": "getItemDetail",
      "outputs": [
        {
          "name": "",
          "type": "string"
        },
        {
          "name": "",
          "type": "uint256"
        },
        {
          "name": "",
          "type": "uint256"
        }
      ],
      "payable": false,
      "stateMutability": "view",
      "type": "function"
    },
    {
      "constant": true,
      "inputs": [
        {
          "name": "_review",
          "type": "uint256"
        }
      ],
      "name": "getReviewDetails",
      "outputs": [
        {
          "name": "",
          "type": "uint256"
        },
        {
          "name": "",
          "type": "address"
        },
        {
          "name": "",
          "type": "string"
        },
        {
          "name": "",
          "type": "uint256"
        },
        {
          "name": "",
          "type": "uint256"
        }
      ],
      "payable": false,
      "stateMutability": "view",
      "type": "function"
    },
    {
      "constant": true,
      "inputs": [
        {
          "name": "a",
          "type": "address"
        }
      ],
      "name": "getUserPoints",
      "outputs": [
        {
          "name": "",
          "type": "int256"
        }
      ],
      "payable": false,
      "stateMutability": "view",
      "type": "function"
    },
    {
      "constant": true,
      "inputs": [
        {
          "name": "source",
          "type": "string"
        }
      ],
      "name": "stringToBytes32",
      "outputs": [
        {
          "name": "result",
          "type": "bytes32"
        }
      ],
      "payable": false,
      "stateMutability": "view",
      "type": "function"
    },
    {
      "constant": true,
      "inputs": [
        {
          "name": "start",
          "type": "uint256"
        },
        {
          "name": "end",
          "type": "uint256"
        },
        {
          "name": "_item",
          "type": "uint256"
        }
      ],
      "name": "returnTopReviews",
      "outputs": [
        {
          "name": "",
          "type": "bytes32[200]"
        },
        {
          "name": "",
          "type": "uint256[]"
        },
        {
          "name": "",
          "type": "uint256[]"
        },
        {
          "name": "",
          "type": "uint256[]"
        }
      ],
      "payable": false,
      "stateMutability": "view",
      "type": "function"
    },
    {
      "constant": false,
      "inputs": [
        {
          "name": "start",
          "type": "uint256"
        },
        {
          "name": "end",
          "type": "uint256"
        },
        {
          "name": "_category",
          "type": "uint256"
        }
      ],
      "name": "returnMostPopularItems",
      "outputs": [
        {
          "name": "",
          "type": "bytes32[100]"
        },
        {
          "name": "",
          "type": "uint256[]"
        }
      ],
      "payable": false,
      "stateMutability": "nonpayable",
      "type": "function"
    }
  ],
  "bytecode": "0x608060405234801561001057600080fd5b506040516040806124a28339810180604052810190808051906020019092919080519060200190929190505050336000806101000a81548173ffffffffffffffffffffffffffffffffffffffff021916908373ffffffffffffffffffffffffffffffffffffffff16021790555081600d60006101000a81548173ffffffffffffffffffffffffffffffffffffffff021916908373ffffffffffffffffffffffffffffffffffffffff1602179055508060018190555060006002819055506000600c8190555050506123bc806100e66000396000f3006080604052600436106100db576000357c0100000000000000000000000000000000000000000000000000000000900463ffffffff1680630115b255146100e057806301ddf070146102355780632199d5cd14610262578063268540b7146102a55780632799276d1461036a57806331bded5f146103955780635164b3b8146103c05780637c9bb5cf146104745780638c5517421461052d578063aeefe31f146105a0578063cfb51928146105f7578063e617de7b1461067c578063eba2463f1461076a578063f31fdad414610781578063fdb33063146107ae575b600080fd5b3480156100ec57600080fd5b5061011f6004803603810190808035906020019092919080359060200190929190803590602001909291905050506107d9565b604051808560c860200280838360005b8381101561014a57808201518184015260208101905061012f565b50505050905001806020018060200180602001848103845287818151815260200191508051906020019060200280838360005b8381101561019857808201518184015260208101905061017d565b50505050905001848103835286818151815260200191508051906020019060200280838360005b838110156101da5780820151818401526020810190506101bf565b50505050905001848103825285818151815260200191508051906020019060200280838360005b8381101561021c578082015181840152602081019050610201565b5050505090500197505050505050505060405180910390f35b34801561024157600080fd5b5061026060048036038101908080359060200190929190505050610b85565b005b34801561026e57600080fd5b506102a3600480360381019080803573ffffffffffffffffffffffffffffffffffffffff169060200190929190505050610e99565b005b3480156102b157600080fd5b506102e4600480360381019080803590602001909291908035906020019092919080359060200190929190505050610f88565b6040518083606460200280838360005b8381101561030f5780820151818401526020810190506102f4565b5050505090500180602001828103825283818151815260200191508051906020019060200280838360005b8381101561035557808201518184015260208101905061033a565b50505050905001935050505060405180910390f35b34801561037657600080fd5b5061037f611198565b6040518082815260200191505060405180910390f35b3480156103a157600080fd5b506103aa61119e565b6040518082815260200191505060405180910390f35b3480156103cc57600080fd5b506103eb600480360381019080803590602001909291905050506111a4565b6040518080602001848152602001838152602001828103825285818151815260200191508051906020019080838360005b8381101561043757808201518184015260208101905061041c565b50505050905090810190601f1680156104645780820380516001836020036101000a031916815260200191505b5094505050505060405180910390f35b34801561048057600080fd5b5061052b600480360381019080803590602001908201803590602001908080601f0160208091040260200160405190810160405280939291908181526020018383808284378201915050505050509192919290803590602001908201803590602001908080601f016020809104026020016040519081016040528093929190818152602001838380828437820191505050505050919291929080359060200190929190505050611296565b005b34801561053957600080fd5b5061059e600480360381019080803590602001908201803590602001908080601f016020809104026020016040519081016040528093929190818152602001838380828437820191505050505050919291929080359060200190929190505050611652565b005b3480156105ac57600080fd5b506105e1600480360381019080803573ffffffffffffffffffffffffffffffffffffffff1690602001909291905050506117b2565b6040518082815260200191505060405180910390f35b34801561060357600080fd5b5061065e600480360381019080803590602001908201803590602001908080601f01602080910402602001604051908101604052809392919081815260200183838082843782019150505050505091929192905050506117fe565b60405180826000191660001916815260200191505060405180910390f35b34801561068857600080fd5b506106a760048036038101908080359060200190929190505050611829565b604051808681526020018573ffffffffffffffffffffffffffffffffffffffff1673ffffffffffffffffffffffffffffffffffffffff16815260200180602001848152602001838152602001828103825285818151815260200191508051906020019080838360005b8381101561072b578082015181840152602081019050610710565b50505050905090810190601f1680156107585780820380516001836020036101000a031916815260200191505b50965050505050505060405180910390f35b34801561077657600080fd5b5061077f611a4c565b005b34801561078d57600080fd5b506107ac60048036038101908080359060200190929190505050611bee565b005b3480156107ba57600080fd5b506107c3611f37565b6040518082815260200191505060405180910390f35b6107e1612211565b6060806060806107ef612235565b60608060606107fc612211565b60648d8d031115151561080e57600080fd5b600b60008c8152602001908152602001600020805490508c10151561083257600080fd5b600b60006002548152602001908152602001600020805480602002602001604051908101604052809291908181526020016000905b82821015610a5c578382906000526020600020906007020160e06040519081016040529081600082015481526020016001820160009054906101000a900473ffffffffffffffffffffffffffffffffffffffff1673ffffffffffffffffffffffffffffffffffffffff1673ffffffffffffffffffffffffffffffffffffffff168152602001600282018054600181600116156101000203166002900480601f0160208091040260200160405190810160405280929190818152602001828054600181600116156101000203166002900480156109845780601f1061095957610100808354040283529160200191610984565b820191906000526020600020905b81548152906001019060200180831161096757829003601f168201915b50505050508152602001600382018054600181600116156101000203166002900480601f016020809104026020016040519081016040528092919081815260200182805460018160011615610100020316600290048015610a265780601f106109fb57610100808354040283529160200191610a26565b820191906000526020600020905b815481529060010190602001808311610a0957829003601f168201915b50505050508152602001600482015481526020016005820154815260200160068201548152505081526020019060010190610867565b505050509550610a728660006001895103611f3d565b5b8b8d1015610b6a57858d815181101515610a8957fe5b906020019060200201519450610aa285604001516117fe565b818e60020260c881101515610ab357fe5b60200201906000191690816000191681525050610ad385606001516117fe565b8160018f6002020160c881101515610ae757fe5b602002019060001916908160001916815250508460800151848e815181101515610b0d57fe5b90602001906020020181815250508460a00151838e815181101515610b2e57fe5b90602001906020020181815250508460c00151828e815181101515610b4f57fe5b90602001906020020181815250508c806001019d5050610a73565b80848484995099509950995050505050505093509350935093565b610b8d612235565b600080600660003373ffffffffffffffffffffffffffffffffffffffff1673ffffffffffffffffffffffffffffffffffffffff16815260200190815260200160002054420390506201518081111515610be557600080fd5b60011515600460003373ffffffffffffffffffffffffffffffffffffffff1673ffffffffffffffffffffffffffffffffffffffff16815260200190815260200160002060010160009054906101000a900460ff161515141515610c4757600080fd5b6008600085815260200190815260200160002060e06040519081016040529081600082015481526020016001820160009054906101000a900473ffffffffffffffffffffffffffffffffffffffff1673ffffffffffffffffffffffffffffffffffffffff1673ffffffffffffffffffffffffffffffffffffffff168152602001600282018054600181600116156101000203166002900480601f016020809104026020016040519081016040528092919081815260200182805460018160011615610100020316600290048015610d5f5780601f10610d3457610100808354040283529160200191610d5f565b820191906000526020600020905b815481529060010190602001808311610d4257829003601f168201915b50505050508152602001600382018054600181600116156101000203166002900480601f016020809104026020016040519081016040528092919081815260200182805460018160011615610100020316600290048015610e015780601f10610dd657610100808354040283529160200191610e01565b820191906000526020600020905b815481529060010190602001808311610de457829003601f168201915b5050505050815260200160048201548152602001600582015481526020016006820154815250509250600183608001818151019150818152505060046000846020015173ffffffffffffffffffffffffffffffffffffffff1673ffffffffffffffffffffffffffffffffffffffff16815260200190815260200160002091506001826000016000828254019250508190555050505050565b610ea1612289565b6000809054906101000a900473ffffffffffffffffffffffffffffffffffffffff1673ffffffffffffffffffffffffffffffffffffffff163373ffffffffffffffffffffffffffffffffffffffff16141515610efc57600080fd5b60408051908101604052806000815260200160011515815250905080600460008473ffffffffffffffffffffffffffffffffffffffff1673ffffffffffffffffffffffffffffffffffffffff1681526020019081526020016000206000820151816000015560208201518160010160006101000a81548160ff0219169083151502179055509050505050565b610f906122a5565b606080610f9b6122a5565b610fa36122c9565b6000606489890311151515610fb757600080fd5b600960008881526020019081526020016000208054905088101515610fdb57600080fd5b60096000888152602001908152602001600020805480602002602001604051908101604052809291908181526020016000905b828210156110f7578382906000526020600020906004020160606040519081016040529081600082018054600181600116156101000203166002900480601f0160208091040260200160405190810160405280929190818152602001828054600181600116156101000203166002900480156110cb5780601f106110a0576101008083540402835291602001916110cb565b820191906000526020600020905b8154815290600101906020018083116110ae57829003601f168201915b50505050508152602001600182015481526020016002820154815250508152602001906001019061100e565b50505050935061110d84600060018751036120a7565b5b8789101561118c57838981518110151561112457fe5b9060200190602002015191508160400151818a81548110151561114357fe5b906000526020600020018190555061115e82600001516117fe565b838a60648110151561116c57fe5b60200201906000191690816000191681525050888060010199505061110e565b50505050935093915050565b60025481565b600c5481565b60606000806007600085815260200190815260200160002060000160076000868152602001908152602001600020600101546007600087815260200190815260200160002060020154828054600181600116156101000203166002900480601f0160208091040260200160405190810160405280929190818152602001828054600181600116156101000203166002900480156112825780601f1061125757610100808354040283529160200191611282565b820191906000526020600020905b81548152906001019060200180831161126557829003601f168201915b505050505092509250925092509193909250565b60008060011515600460003373ffffffffffffffffffffffffffffffffffffffff1673ffffffffffffffffffffffffffffffffffffffff16815260200190815260200160002060010160009054906101000a900460ff1615151415156112fb57600080fd5b600760008481526020019081526020016000209150600015158260030160003373ffffffffffffffffffffffffffffffffffffffff1673ffffffffffffffffffffffffffffffffffffffff16815260200190815260200160002060009054906101000a900460ff16151514151561137157600080fd5b600560003373ffffffffffffffffffffffffffffffffffffffff1673ffffffffffffffffffffffffffffffffffffffff168152602001908152602001600020600c54908060018154018082558091505090600182039060005260206000200160009091929091909150555081600201549050600b600084815260200190815260200160002060e060405190810160405280600c5481526020013373ffffffffffffffffffffffffffffffffffffffff16815260200187815260200186815260200160008152602001600081526020016000815250908060018154018082558091505090600182039060005260206000209060070201600090919290919091506000820151816000015560208201518160010160006101000a81548173ffffffffffffffffffffffffffffffffffffffff021916908373ffffffffffffffffffffffffffffffffffffffff16021790555060408201518160020190805190602001906114dd9291906122eb565b5060608201518160030190805190602001906114fa9291906122eb565b506080820151816004015560a0820151816005015560c0820151816006015550505060e060405190810160405280600c5481526020013373ffffffffffffffffffffffffffffffffffffffff1681526020018681526020018581526020016000815260200160008152602001600081525060086000600c5481526020019081526020016000206000820151816000015560208201518160010160006101000a81548173ffffffffffffffffffffffffffffffffffffffff021916908373ffffffffffffffffffffffffffffffffffffffff16021790555060408201518160020190805190602001906115ed9291906122eb565b50606082015181600301908051906020019061160a9291906122eb565b506080820151816004015560a0820151816005015560c082015181600601559050506001600c5401600c81905550600182600201600082825401925050819055505050505050565b61165a6122c9565b6000809054906101000a900473ffffffffffffffffffffffffffffffffffffffff1673ffffffffffffffffffffffffffffffffffffffff163373ffffffffffffffffffffffffffffffffffffffff161415156116b557600080fd5b60015482111515156116c657600080fd5b8281600001819052508181602001818152505060008160400181815250508060076000600254815260200190815260200160002060008201518160000190805190602001906117169291906122eb565b50602082015181600101556040820151816002015590505060096000838152602001908152602001600020819080600181540180825580915050906001820390600052602060002090600402016000909192909190915060008201518160000190805190602001906117899291906122eb565b506020820151816001015560408201518160020155505050600160025401600281905550505050565b6000600460008373ffffffffffffffffffffffffffffffffffffffff1673ffffffffffffffffffffffffffffffffffffffff168152602001908152602001600020600001549050919050565b6000606082905060008151141561181b5760006001029150611823565b602083015191505b50919050565b6000806060600080611839612235565b6008600088815260200190815260200160002060e06040519081016040529081600082015481526020016001820160009054906101000a900473ffffffffffffffffffffffffffffffffffffffff1673ffffffffffffffffffffffffffffffffffffffff1673ffffffffffffffffffffffffffffffffffffffff168152602001600282018054600181600116156101000203166002900480601f0160208091040260200160405190810160405280929190818152602001828054600181600116156101000203166002900480156119515780601f1061192657610100808354040283529160200191611951565b820191906000526020600020905b81548152906001019060200180831161193457829003601f168201915b50505050508152602001600382018054600181600116156101000203166002900480601f0160208091040260200160405190810160405280929190818152602001828054600181600116156101000203166002900480156119f35780601f106119c8576101008083540402835291602001916119f3565b820191906000526020600020905b8154815290600101906020018083116119d657829003601f168201915b505050505081526020016004820154815260200160058201548152602001600682015481525050905080600001518160200151826040015183608001518460a00151829250955095509550955095505091939590929450565b6000600460003373ffffffffffffffffffffffffffffffffffffffff1673ffffffffffffffffffffffffffffffffffffffff168152602001908152602001600020600001549050600081111515611aa257600080fd5b6000600460003373ffffffffffffffffffffffffffffffffffffffff1673ffffffffffffffffffffffffffffffffffffffff16815260200190815260200160002060000181905550600d60009054906101000a900473ffffffffffffffffffffffffffffffffffffffff1673ffffffffffffffffffffffffffffffffffffffff1663a9059cbb33836040518363ffffffff167c0100000000000000000000000000000000000000000000000000000000028152600401808373ffffffffffffffffffffffffffffffffffffffff1673ffffffffffffffffffffffffffffffffffffffff16815260200182815260200192505050602060405180830381600087803b158015611baf57600080fd5b505af1158015611bc3573d6000803e3d6000fd5b505050506040513d6020811015611bd957600080fd5b81019080805190602001909291905050505050565b611bf6612235565b611bfe612289565b6000600660003373ffffffffffffffffffffffffffffffffffffffff1673ffffffffffffffffffffffffffffffffffffffff16815260200190815260200160002054420390506201518081111515611c5557600080fd5b60011515600460003373ffffffffffffffffffffffffffffffffffffffff1673ffffffffffffffffffffffffffffffffffffffff16815260200190815260200160002060010160009054906101000a900460ff161515141515611cb757600080fd5b6008600085815260200190815260200160002060e06040519081016040529081600082015481526020016001820160009054906101000a900473ffffffffffffffffffffffffffffffffffffffff1673ffffffffffffffffffffffffffffffffffffffff1673ffffffffffffffffffffffffffffffffffffffff168152602001600282018054600181600116156101000203166002900480601f016020809104026020016040519081016040528092919081815260200182805460018160011615610100020316600290048015611dcf5780601f10611da457610100808354040283529160200191611dcf565b820191906000526020600020905b815481529060010190602001808311611db257829003601f168201915b50505050508152602001600382018054600181600116156101000203166002900480601f016020809104026020016040519081016040528092919081815260200182805460018160011615610100020316600290048015611e715780601f10611e4657610100808354040283529160200191611e71565b820191906000526020600020905b815481529060010190602001808311611e5457829003601f168201915b505050505081526020016004820154815260200160058201548152602001600682015481525050925060018360a001818151019150818152505060046000846020015173ffffffffffffffffffffffffffffffffffffffff1673ffffffffffffffffffffffffffffffffffffffff168152602001908152602001600020604080519081016040529081600082015481526020016001820160009054906101000a900460ff1615151515815250509150600182600001818151039150818152505050505050565b60015481565b600080600084925083915081831415611f555761209f565b856002868603811515611f6457fe5b058601815181101515611f7357fe5b9060200190602002015160c0015190505b8183131515612076575b808684815181101515611f9d57fe5b9060200190602002015160c001511015611fbe578280600101935050611f8e565b5b8582815181101515611fcd57fe5b9060200190602002015160c00151811015611ff057818060019003925050611fbf565b818313151561207157858281518110151561200757fe5b90602001906020020151868481518110151561201f57fe5b90602001906020020151878581518110151561203757fe5b906020019060200201888581518110151561204e57fe5b906020019060200201829052829052505082806001019350508180600190039250505b611f84565b8185121561208a57612089868684611f3d565b5b8383121561209e5761209d868486611f3d565b5b5b505050505050565b6000806000849250839150818314156120bf57612209565b8560028686038115156120ce57fe5b0586018151811015156120dd57fe5b906020019060200201516040015190505b81831315156121e0575b80868481518110151561210757fe5b906020019060200201516040015110156121285782806001019350506120f8565b5b858281518110151561213757fe5b906020019060200201516040015181101561215a57818060019003925050612129565b81831315156121db57858281518110151561217157fe5b90602001906020020151868481518110151561218957fe5b9060200190602002015187858151811015156121a157fe5b90602001906020020188858151811015156121b857fe5b906020019060200201829052829052505082806001019350508180600190039250505b6120ee565b818512156121f4576121f38686846120a7565b5b83831215612208576122078684866120a7565b5b5b505050505050565b6119006040519081016040528060c890602082028038833980820191505090505090565b60e06040519081016040528060008152602001600073ffffffffffffffffffffffffffffffffffffffff16815260200160608152602001606081526020016000815260200160008152602001600081525090565b6040805190810160405280600081526020016000151581525090565b610c8060405190810160405280606490602082028038833980820191505090505090565b6060604051908101604052806060815260200160008152602001600081525090565b828054600181600116156101000203166002900490600052602060002090601f016020900481019282601f1061232c57805160ff191683800117855561235a565b8280016001018555821561235a579182015b8281111561235957825182559160200191906001019061233e565b5b509050612367919061236b565b5090565b61238d91905b80821115612389576000816000905550600101612371565b5090565b905600a165627a7a723058201b6b85c61ca99bf7bf56b503e13b81d82b289f81671cea4a06c2a51964417aca0029",
  "source": "pragma solidity ^0.4.10;\n\nimport \"./Token.sol\";\n\ncontract FeedBack{\n\n  constructor(address _token,uint _categories){\n  owner=msg.sender;\n  tk=Token(_token);\n  categories=_categories;\n  totalItems=0;\n  totalreviews=0;\n  }\n\naddress owner;\nuint public categories;\nuint public totalItems;\nmapping(uint=>string) categoryDescription;\nmapping(address=>User) UserMap;\nmapping(address=>uint[]) reviewIds;\nmapping(address=>uint) lastVoteTime;\nmapping(uint=>Item) ItemMap;\nmapping(uint=>Review) reviewMap;\nmapping(uint=>Item[]) itemInCategory;\nmapping(uint=>uint) RatioID;\nmapping(uint=>Review[]) ItemReviews;\nuint public totalreviews;\nToken tk;\n\n\n\n\nstruct Item{\n  string name;\n\tuint category;\n\tuint totalItemReviews;\n\n\tmapping(address=>bool) hasReviewed;\n\n}\n\nstruct Review{\n    uint id;\n\taddress creator;\n\tstring  contents;\n  string contents2;\n\tuint upvotes;\n\tuint downvotes;\n  uint voteRatio;\n}\nstruct User{\n\n    int coinpoints;\n    bool registered;\n}\nmodifier isOwner(){\n\trequire(msg.sender==owner);\n\t_;\n}\nmodifier isRegistered(){\n\trequire(UserMap[msg.sender].registered==true);\n\t_;\n}\nmodifier VoteTimeOut(){\n\tuint interval=now-lastVoteTime[msg.sender];\n\trequire(interval>86400);\n  _;\n}\n\nfunction createReview(string _contents,string _contents2,uint _item) isRegistered(){\n\n\tItem storage temp= ItemMap[_item];\n\trequire(temp.hasReviewed[msg.sender]==false);\n  reviewIds[msg.sender].push(totalreviews);\n\n\tuint total=temp.totalItemReviews;\n\tItemReviews[_item].push(Review(totalreviews,msg.sender,_contents,_contents2,0,0,0));\n  reviewMap[totalreviews]=Review(totalreviews,msg.sender,_contents,_contents2,0,0,0);\n\n \ttotalreviews=totalreviews+1;\n \ttemp.totalItemReviews+=1;\n\n}\n\nfunction createItem(string _name,uint _category) isOwner(){\n\t//bytes32 ID=sha3(_name,totalitems);\n  require(_category<=categories);\n  Item memory tempItem;\n  tempItem.name=_name;\n  tempItem.category=_category;\n\ttempItem.totalItemReviews=0;\n  ItemMap[totalItems]=tempItem;\n  itemInCategory[_category].push(tempItem);\n\ttotalItems=totalItems+1;\n}\n\n\nfunction registerUser(address a) isOwner(){\n\tUser memory temp=User(0,true);\n  UserMap[a]=temp;\n}\n\nfunction redeemPoints(){\n\n\tuint points=uint(UserMap[msg.sender].coinpoints);\n  require(points>0);\n\tUserMap[msg.sender].coinpoints=0;\n\ttk.transfer(msg.sender,points);\n}\n\nfunction upvote(uint _id) VoteTimeOut() isRegistered(){\n\tReview memory r=reviewMap[_id];\n\tr.upvotes+=1;\n\n\tUser storage rowner=UserMap[r.creator];\n\trowner.coinpoints+=1;\n}\n\nfunction downvote(uint _id) VoteTimeOut() isRegistered(){\n\t\tReview memory r=reviewMap[_id];\n\tr.downvotes+=1;\n\tUser memory rowner=UserMap[r.creator];\n\trowner.coinpoints-=1;\n\n}\n\nfunction getItemDetail(uint ID) constant returns(string,uint,uint){\nreturn(ItemMap[ID].name,ItemMap[ID].category,ItemMap[ID].totalItemReviews);\n}\n\nfunction getReviewDetails(uint _review) constant returns(uint,address,string,uint,uint){\n Review memory temp=reviewMap[_review];\n return(temp.id,temp.creator,temp.contents,temp.upvotes,temp.downvotes);\n}\n\n\n\nfunction getUserPoints(address a) constant returns(int){\n  return UserMap[a].coinpoints;\n}\nfunction stringToBytes32(string memory source) constant returns (bytes32 result) {\n    bytes memory tempEmptyStringTest = bytes(source);\n    if (tempEmptyStringTest.length == 0) {\n        return 0x0;\n    }\n\n    assembly {\n        result := mload(add(source, 32))\n    }\n}\n\nfunction returnTopReviews(uint start,uint end,uint _item) constant returns(bytes32[200],uint[],uint[],uint[]){\n        require((end-start)<=100);\n        require((end<ItemReviews[_item].length));\n        Review[] memory reviews=ItemReviews[totalItems];\n        quickSort(reviews, int(0), int(reviews.length - 1));\n        Review memory temp;\n        uint[] memory _upvotes;\n        uint[] memory _downvotes;\n        uint[] memory _ratio;\n        bytes32[200] memory info;\n\n        while(start<end){\n         temp=reviews[start];\n         info[2*(start)]=stringToBytes32(temp.contents);\n         info[2*(start)+1]=stringToBytes32(temp.contents2);\n         _upvotes[start]=temp.upvotes;\n         _downvotes[start]=temp.downvotes;\n         _ratio[start]=temp.voteRatio;\n          start++;\n        }\n        return(info,_upvotes,_downvotes,_ratio);\n    }\nfunction returnMostPopularItems(uint start,uint end, uint _category)returns(bytes32[100],uint[]){\n  require((end-start)<=100);\n  require((end<itemInCategory[_category].length));\n  Item[] memory items=itemInCategory[_category];\n  quickSort(items, int(0), int(items.length - 1));\n  bytes32[100] memory info;\n  Item memory temp;\n  uint[] totalR;\n  while(start<end){\n     temp=items[start];\n     totalR[start]=temp.totalItemReviews;\n     info[start]=stringToBytes32(temp.name);\n     start++;\n  }\n}\n\n       function quickSort(Review[] memory arr, int left, int right) internal{\n           int i = left;\n           int j = right;\n           if(i==j) return;\n           uint pivot = arr[uint(left + (right - left) / 2)].voteRatio;\n           while (i <= j) {\n               while (arr[uint(i)].voteRatio < pivot) i++;\n               while (pivot < arr[uint(j)].voteRatio) j--;\n               if (i <= j) {\n                   (arr[uint(i)], arr[uint(j)]) = (arr[uint(j)], arr[uint(i)]);\n                   i++;\n                   j--;\n               }\n           }\n           if (left < j)\n               quickSort(arr, left, j);\n           if (i < right)\n               quickSort(arr, i, right);\n       }\n       function quickSort(Item[] memory arr, int left, int right) internal{\n           int i = left;\n           int j = right;\n           if(i==j) return;\n           uint pivot = arr[uint(left + (right - left) / 2)].totalItemReviews;\n           while (i <= j) {\n               while (arr[uint(i)].totalItemReviews < pivot) i++;\n               while (pivot < arr[uint(j)].totalItemReviews) j--;\n               if (i <= j) {\n                   (arr[uint(i)], arr[uint(j)]) = (arr[uint(j)], arr[uint(i)]);\n                   i++;\n                   j--;\n               }\n           }\n           if (left < j)\n               quickSort(arr, left, j);\n           if (i < right)\n               quickSort(arr, i, right);\n       }\n\n\n\n\n}\n",
  "sourcePath": "/home/jjj/FeedBackTOken/FeedBackToken/contracts/FeedBack.sol",
  "compiler": {
    "name": "solc",
    "version": "0.4.24+commit.e67f0147.Emscripten.clang"
  },
  "schemaVersion": "2.0.1",
  "updatedAt": "2018-09-08T16:49:58.588Z"
}