{
  "contractName": "FeedBack",
  "abi": [
    {
      "inputs": [
        {
          "name": "_token",
          "type": "address"
        },
        {
          "name": "_categories",
          "type": "uint256"
        }
      ],
      "payable": false,
      "stateMutability": "nonpayable",
      "type": "constructor"
    },
    {
      "constant": false,
      "inputs": [
        {
          "name": "_contents",
          "type": "string"
        },
        {
          "name": "_item",
          "type": "uint256"
        }
      ],
      "name": "createReview",
      "outputs": [],
      "payable": false,
      "stateMutability": "nonpayable",
      "type": "function"
    },
    {
      "constant": false,
      "inputs": [
        {
          "name": "_name",
          "type": "string"
        },
        {
          "name": "_category",
          "type": "uint256"
        }
      ],
      "name": "createItem",
      "outputs": [],
      "payable": false,
      "stateMutability": "nonpayable",
      "type": "function"
    },
    {
      "constant": false,
      "inputs": [
        {
          "name": "a",
          "type": "address"
        }
      ],
      "name": "registerUser",
      "outputs": [],
      "payable": false,
      "stateMutability": "nonpayable",
      "type": "function"
    },
    {
      "constant": false,
      "inputs": [],
      "name": "redeemPoints",
      "outputs": [],
      "payable": false,
      "stateMutability": "nonpayable",
      "type": "function"
    },
    {
      "constant": false,
      "inputs": [
        {
          "name": "_id",
          "type": "uint256"
        },
        {
          "name": "_item",
          "type": "uint256"
        }
      ],
      "name": "upvote",
      "outputs": [],
      "payable": false,
      "stateMutability": "nonpayable",
      "type": "function"
    },
    {
      "constant": false,
      "inputs": [
        {
          "name": "_id",
          "type": "uint256"
        },
        {
          "name": "_item",
          "type": "uint256"
        }
      ],
      "name": "downvote",
      "outputs": [],
      "payable": false,
      "stateMutability": "nonpayable",
      "type": "function"
    },
    {
      "constant": true,
      "inputs": [
        {
          "name": "ID",
          "type": "uint256"
        }
      ],
      "name": "getItemDetail",
      "outputs": [
        {
          "name": "",
          "type": "string"
        },
        {
          "name": "",
          "type": "uint256"
        },
        {
          "name": "",
          "type": "uint256"
        }
      ],
      "payable": false,
      "stateMutability": "view",
      "type": "function"
    },
    {
      "constant": true,
      "inputs": [
        {
          "name": "_item",
          "type": "uint256"
        },
        {
          "name": "_review",
          "type": "uint256"
        }
      ],
      "name": "getReviewDetails",
      "outputs": [
        {
          "name": "",
          "type": "uint256"
        },
        {
          "name": "",
          "type": "address"
        },
        {
          "name": "",
          "type": "string"
        },
        {
          "name": "",
          "type": "uint256"
        },
        {
          "name": "",
          "type": "uint256"
        }
      ],
      "payable": false,
      "stateMutability": "view",
      "type": "function"
    }
  ],
  "bytecode": "0x608060405234801561001057600080fd5b506040516040806111238339810180604052810190808051906020019092919080519060200190929190505050336000806101000a81548173ffffffffffffffffffffffffffffffffffffffff021916908373ffffffffffffffffffffffffffffffffffffffff16021790555081600960006101000a81548173ffffffffffffffffffffffffffffffffffffffff021916908373ffffffffffffffffffffffffffffffffffffffff1602179055508060018190555060006002819055505050611045806100de6000396000f30060806040526004361061008e576000357c0100000000000000000000000000000000000000000000000000000000900463ffffffff16806306a7fefe146100935780632199d5cd146100ca5780635164b3b81461010d5780635e7ce9f8146101c15780638c551742146101f85780639ca699dd1461026b578063eba2463f146102de578063f47aaa17146102f5575b600080fd5b34801561009f57600080fd5b506100c860048036038101908080359060200190929190803590602001909291905050506103ed565b005b3480156100d657600080fd5b5061010b600480360381019080803573ffffffffffffffffffffffffffffffffffffffff16906020019092919050505061059e565b005b34801561011957600080fd5b5061013860048036038101908080359060200190929190505050610620565b6040518080602001848152602001838152602001828103825285818151815260200191508051906020019080838360005b83811015610184578082015181840152602081019050610169565b50505050905090810190601f1680156101b15780820380516001836020036101000a031916815260200191505b5094505050505060405180910390f35b3480156101cd57600080fd5b506101f66004803603810190808035906020019092919080359060200190929190505050610712565b005b34801561020457600080fd5b50610269600480360381019080803590602001908201803590602001908080601f0160208091040260200160405190810160405280939291908181526020018383808284378201915050505050509192919290803590602001909291905050506108c3565b005b34801561027757600080fd5b506102dc600480360381019080803590602001908201803590602001908080601f0160208091040260200160405190810160405280939291908181526020018383808284378201915050505050509192919290803590602001909291905050506109a5565b005b3480156102ea57600080fd5b506102f3610bf3565b005b34801561030157600080fd5b5061032a6004803603810190808035906020019092919080359060200190929190505050610d86565b604051808681526020018573ffffffffffffffffffffffffffffffffffffffff1673ffffffffffffffffffffffffffffffffffffffff16815260200180602001848152602001838152602001828103825285818151815260200191508051906020019080838360005b838110156103ae578082015181840152602081019050610393565b50505050905090810190601f1680156103db5780820380516001836020036101000a031916815260200191505b50965050505050505060405180910390f35b6000806103f8610f12565b6000600660003373ffffffffffffffffffffffffffffffffffffffff1673ffffffffffffffffffffffffffffffffffffffff1681526020019081526020016000205442039050620151808111151561044f57600080fd5b60011515600460003373ffffffffffffffffffffffffffffffffffffffff1673ffffffffffffffffffffffffffffffffffffffff16815260200190815260200160002060010160009054906101000a900460ff1615151415156104b157600080fd5b600760008781526020019081526020016000209350836004016000868152602001908152602001600020925060018360030160008282540192505081905550600460008460010160009054906101000a900473ffffffffffffffffffffffffffffffffffffffff1673ffffffffffffffffffffffffffffffffffffffff1673ffffffffffffffffffffffffffffffffffffffff168152602001908152602001600020604080519081016040529081600082015481526020016001820160009054906101000a900460ff16151515158152505091506001826000018181510391508181525050505050505050565b6105a6610f12565b6000809054906101000a900473ffffffffffffffffffffffffffffffffffffffff1673ffffffffffffffffffffffffffffffffffffffff163373ffffffffffffffffffffffffffffffffffffffff1614151561060157600080fd5b6040805190810160405280600081526020016001151581525090505050565b60606000806007600085815260200190815260200160002060000160076000868152602001908152602001600020600101546007600087815260200190815260200160002060020154828054600181600116156101000203166002900480601f0160208091040260200160405190810160405280929190818152602001828054600181600116156101000203166002900480156106fe5780601f106106d3576101008083540402835291602001916106fe565b820191906000526020600020905b8154815290600101906020018083116106e157829003601f168201915b505050505092509250925092509193909250565b60008061071d610f12565b6000600660003373ffffffffffffffffffffffffffffffffffffffff1673ffffffffffffffffffffffffffffffffffffffff1681526020019081526020016000205442039050620151808111151561077457600080fd5b60011515600460003373ffffffffffffffffffffffffffffffffffffffff1673ffffffffffffffffffffffffffffffffffffffff16815260200190815260200160002060010160009054906101000a900460ff1615151415156107d657600080fd5b600760008781526020019081526020016000209350836004016000868152602001908152602001600020925060018360040160008282540192505081905550600460008460010160009054906101000a900473ffffffffffffffffffffffffffffffffffffffff1673ffffffffffffffffffffffffffffffffffffffff1673ffffffffffffffffffffffffffffffffffffffff168152602001908152602001600020604080519081016040529081600082015481526020016001820160009054906101000a900460ff16151515158152505091506001826000018181510191508181525050505050505050565b6000809054906101000a900473ffffffffffffffffffffffffffffffffffffffff1673ffffffffffffffffffffffffffffffffffffffff163373ffffffffffffffffffffffffffffffffffffffff1614151561091e57600080fd5b600154811115151561092f57600080fd5b6060604051908101604052808381526020018281526020016000815250600760006002548152602001908152602001600020600082015181600001908051906020019061097d929190610f2e565b5060208201518160010155604082015181600201559050506001600254016002819055505050565b60008060011515600460003373ffffffffffffffffffffffffffffffffffffffff1673ffffffffffffffffffffffffffffffffffffffff16815260200190815260200160002060010160009054906101000a900460ff161515141515610a0a57600080fd5b600760008481526020019081526020016000209150600015158260030160003373ffffffffffffffffffffffffffffffffffffffff1673ffffffffffffffffffffffffffffffffffffffff16815260200190815260200160002060009054906101000a900460ff161515141515610a8057600080fd5b600560003373ffffffffffffffffffffffffffffffffffffffff1673ffffffffffffffffffffffffffffffffffffffff16815260200190815260200160002060085490806001815401808255809150509060018203906000526020600020016000909192909190915055508160020154905060a06040519081016040528060085481526020013373ffffffffffffffffffffffffffffffffffffffff1681526020018581526020016000815260200160008152508260040160008381526020019081526020016000206000820151816000015560208201518160010160006101000a81548173ffffffffffffffffffffffffffffffffffffffff021916908373ffffffffffffffffffffffffffffffffffffffff1602179055506040820151816002019080519060200190610bb6929190610f2e565b5060608201518160030155608082015181600401559050506001600854016008819055506001826002016000828254019250508190555050505050565b6000600460003373ffffffffffffffffffffffffffffffffffffffff1673ffffffffffffffffffffffffffffffffffffffff1681526020019081526020016000206000015490506000600460003373ffffffffffffffffffffffffffffffffffffffff1673ffffffffffffffffffffffffffffffffffffffff16815260200190815260200160002060000181905550600960009054906101000a900473ffffffffffffffffffffffffffffffffffffffff1673ffffffffffffffffffffffffffffffffffffffff1663a9059cbb33836040518363ffffffff167c0100000000000000000000000000000000000000000000000000000000028152600401808373ffffffffffffffffffffffffffffffffffffffff1673ffffffffffffffffffffffffffffffffffffffff16815260200182815260200192505050602060405180830381600087803b158015610d4757600080fd5b505af1158015610d5b573d6000803e3d6000fd5b505050506040513d6020811015610d7157600080fd5b81019080805190602001909291905050505050565b6000806060600080610d96610fae565b60076000898152602001908152602001600020600401600088815260200190815260200160002060a06040519081016040529081600082015481526020016001820160009054906101000a900473ffffffffffffffffffffffffffffffffffffffff1673ffffffffffffffffffffffffffffffffffffffff1673ffffffffffffffffffffffffffffffffffffffff168152602001600282018054600181600116156101000203166002900480601f016020809104026020016040519081016040528092919081815260200182805460018160011615610100020316600290048015610ec25780601f10610e9757610100808354040283529160200191610ec2565b820191906000526020600020905b815481529060010190602001808311610ea557829003601f168201915b505050505081526020016003820154815260200160048201548152505090508060000151816020015182604001518360600151846080015182925095509550955095509550509295509295909350565b6040805190810160405280600081526020016000151581525090565b828054600181600116156101000203166002900490600052602060002090601f016020900481019282601f10610f6f57805160ff1916838001178555610f9d565b82800160010185558215610f9d579182015b82811115610f9c578251825591602001919060010190610f81565b5b509050610faa9190610ff4565b5090565b60a06040519081016040528060008152602001600073ffffffffffffffffffffffffffffffffffffffff1681526020016060815260200160008152602001600081525090565b61101691905b80821115611012576000816000905550600101610ffa565b5090565b905600a165627a7a72305820703fe1d232797530022fa5f51453338740237bb5f96c637581b610c8eb6069cb0029",
  "source": "pragma solidity ^0.4.10;\n\nimport \"./Token.sol\";\n\ncontract FeedBack{\n\n  constructor(address _token,uint _categories){\n  owner=msg.sender;\n  tk=Token(_token);\n  categories=_categories;\n  totalItems=0;\n  totalreviews;\n  }\n\naddress owner;\nuint categories;\nuint totalItems;\nmapping(uint=>string) categoryDescription;\nmapping(address=>User) UserMap;\nmapping(address=>uint[]) reviewIds;\nmapping(address=>uint) lastVoteTime;\nmapping(uint=>Item) ItemMap;\nuint totalreviews;\nToken tk;\n\n\n\nstruct Item{\n  string name;\n\tuint category;\n\tuint totalItemReviews;\n\n\tmapping(address=>bool) hasReviewed;\n\tmapping(uint=>Review) reviews;\n}\n\nstruct Review{\n    uint id;\n\taddress creator;\n\tstring  contents;\n\tuint upvotes;\n\tuint downvotes;\n\n}\nstruct User{\n\n    uint coinpoints;\n    bool registered;\n}\nmodifier isOwner(){\n\trequire(msg.sender==owner);\n\t_;\n}\nmodifier isRegistered(){\n\trequire(UserMap[msg.sender].registered==true);\n\t_;\n}\nmodifier VoteTimeOut(){\n\tuint interval=now-lastVoteTime[msg.sender];\n\trequire(interval>86400);\n  _;\n}\n\nfunction createReview(string _contents,uint _item) isRegistered(){\n\n\tItem storage temp= ItemMap[_item];\n\trequire(temp.hasReviewed[msg.sender]==false);\n  reviewIds[msg.sender].push(totalreviews);\n\tuint total=temp.totalItemReviews;\n\ttemp.reviews[total]=Review(totalreviews,msg.sender,_contents,0,0);\n \ttotalreviews=totalreviews+1;\n \ttemp.totalItemReviews+=1;\n}\n\nfunction createItem(string _name,uint _category) isOwner(){\n\t//bytes32 ID=sha3(_name,totalitems);\n  require(_category<=categories);\n\tItemMap[totalItems]=Item(_name,_category,0);\n\ttotalItems=totalItems+1;\n}\n\n\nfunction registerUser(address a) isOwner(){\n\tUser memory temp=User(0,true);\n}\n\nfunction redeemPoints(){\n\tuint points=UserMap[msg.sender].coinpoints;\n\tUserMap[msg.sender].coinpoints=0;\n\ttk.transfer(msg.sender,points);\n}\n\nfunction upvote(uint _id,uint _item) VoteTimeOut() isRegistered(){\n\tItem temp= ItemMap[_id];\n\tReview r=temp.reviews[_item];\n\tr.downvotes+=1;\n\tUser memory rowner=UserMap[r.creator];\n\trowner.coinpoints+=1;\n}\n\nfunction downvote(uint _id,uint _item) VoteTimeOut() isRegistered(){\n\tItem temp= ItemMap[_id];\n\tReview r=temp.reviews[_item];\n\tr.upvotes+=1;\n\tUser memory rowner=UserMap[r.creator];\n\trowner.coinpoints-=1;\n\n}\n\nfunction getItemDetail(uint ID) constant returns(string,uint,uint){\nreturn(ItemMap[ID].name,ItemMap[ID].category,ItemMap[ID].totalItemReviews);\n}\nfunction getReviewDetails(uint _item,uint _review) constant returns(uint,address,string,uint,uint){\n Review memory temp=ItemMap[_item].reviews[_review];\n return(temp.id,temp.creator,temp.contents,temp.upvotes,temp.downvotes);\n}\n}\n",
  "sourcePath": "/home/jjj/FeedBackToken/contracts/FeedBack.sol",
  "compiler": {
    "name": "solc",
    "version": "0.4.24+commit.e67f0147.Emscripten.clang"
  },
  "schemaVersion": "2.0.1",
  "updatedAt": "2018-08-30T23:07:33.305Z"
}